{
  "contractName": "EthSwap",
  "abi": [
    {
      "inputs": [
        {
          "internalType": "contract FAQToken",
          "name": "_token",
          "type": "address"
        }
      ],
      "stateMutability": "nonpayable",
      "type": "constructor"
    },
    {
      "anonymous": false,
      "inputs": [
        {
          "indexed": false,
          "internalType": "address",
          "name": "_account",
          "type": "address"
        },
        {
          "indexed": false,
          "internalType": "address",
          "name": "_token",
          "type": "address"
        },
        {
          "indexed": false,
          "internalType": "uint256",
          "name": "_amount",
          "type": "uint256"
        },
        {
          "indexed": false,
          "internalType": "uint256",
          "name": "_rate",
          "type": "uint256"
        }
      ],
      "name": "TokenPurchased",
      "type": "event"
    },
    {
      "anonymous": false,
      "inputs": [
        {
          "indexed": false,
          "internalType": "address",
          "name": "_account",
          "type": "address"
        },
        {
          "indexed": false,
          "internalType": "address",
          "name": "_token",
          "type": "address"
        },
        {
          "indexed": false,
          "internalType": "uint256",
          "name": "_amount",
          "type": "uint256"
        },
        {
          "indexed": false,
          "internalType": "uint256",
          "name": "_rate",
          "type": "uint256"
        }
      ],
      "name": "TokenSold",
      "type": "event"
    },
    {
      "inputs": [],
      "name": "name",
      "outputs": [
        {
          "internalType": "string",
          "name": "",
          "type": "string"
        }
      ],
      "stateMutability": "view",
      "type": "function",
      "constant": true
    },
    {
      "inputs": [],
      "name": "rate",
      "outputs": [
        {
          "internalType": "uint256",
          "name": "",
          "type": "uint256"
        }
      ],
      "stateMutability": "view",
      "type": "function",
      "constant": true
    },
    {
      "inputs": [],
      "name": "token",
      "outputs": [
        {
          "internalType": "contract FAQToken",
          "name": "",
          "type": "address"
        }
      ],
      "stateMutability": "view",
      "type": "function",
      "constant": true
    },
    {
      "inputs": [],
      "name": "buyTokens",
      "outputs": [],
      "stateMutability": "payable",
      "type": "function",
      "payable": true
    },
    {
      "inputs": [
        {
          "internalType": "uint256",
          "name": "_amount",
          "type": "uint256"
        }
      ],
      "name": "sellTokens",
      "outputs": [],
      "stateMutability": "payable",
      "type": "function",
      "payable": true
    },
    {
      "inputs": [],
      "name": "withdrawMoney",
      "outputs": [],
      "stateMutability": "nonpayable",
      "type": "function"
    }
  ],
  "bytecode": "0x60806040526040518060400160405280601881526020017f4574687377617020496e7374616e742045786368616e676500000000000000008152506000908051906020019062000051929190620000d2565b5060646002553480156200006457600080fd5b5060405162000e3c38038062000e3c83398181016040528101906200008a919062000199565b80600160006101000a81548173ffffffffffffffffffffffffffffffffffffffff021916908373ffffffffffffffffffffffffffffffffffffffff160217905550506200028c565b828054620000e0906200020d565b90600052602060002090601f01602090048101928262000104576000855562000150565b82601f106200011f57805160ff191683800117855562000150565b8280016001018555821562000150579182015b828111156200014f57825182559160200191906001019062000132565b5b5090506200015f919062000163565b5090565b5b808211156200017e57600081600090555060010162000164565b5090565b600081519050620001938162000272565b92915050565b600060208284031215620001ac57600080fd5b6000620001bc8482850162000182565b91505092915050565b6000620001d282620001ed565b9050919050565b6000620001e682620001c5565b9050919050565b600073ffffffffffffffffffffffffffffffffffffffff82169050919050565b600060028204905060018216806200022657607f821691505b602082108114156200023d576200023c62000243565b5b50919050565b7f4e487b7100000000000000000000000000000000000000000000000000000000600052602260045260246000fd5b6200027d81620001d9565b81146200028957600080fd5b50565b610ba0806200029c6000396000f3fe6080604052600436106100555760003560e01c806306fdde031461005a5780632c4e722e146100855780636c11bcd3146100b0578063ac446002146100cc578063d0febe4c146100e3578063fc0c546a146100ed575b600080fd5b34801561006657600080fd5b5061006f610118565b60405161007c91906108c9565b60405180910390f35b34801561009157600080fd5b5061009a6101a6565b6040516100a7919061090b565b60405180910390f35b6100ca60048036038101906100c591906106d0565b6101ac565b005b3480156100d857600080fd5b506100e16103e0565b005b6100eb61042f565b005b3480156100f957600080fd5b50610102610642565b60405161010f91906108ae565b60405180910390f35b6000805461012590610a6c565b80601f016020809104026020016040519081016040528092919081815260200182805461015190610a6c565b801561019e5780601f106101735761010080835404028352916020019161019e565b820191906000526020600020905b81548152906001019060200180831161018157829003601f168201915b505050505081565b60025481565b80600160009054906101000a900473ffffffffffffffffffffffffffffffffffffffff1673ffffffffffffffffffffffffffffffffffffffff166370a08231336040518263ffffffff1660e01b815260040161020891906107ee565b60206040518083038186803b15801561022057600080fd5b505afa158015610234573d6000803e3d6000fd5b505050506040513d601f19601f8201168201806040525081019061025891906106f9565b101561026357600080fd5b6000600254826102739190610942565b90508047101561028257600080fd5b600160009054906101000a900473ffffffffffffffffffffffffffffffffffffffff1673ffffffffffffffffffffffffffffffffffffffff166323b872dd3330856040518463ffffffff1660e01b81526004016102e193929190610809565b602060405180830381600087803b1580156102fb57600080fd5b505af115801561030f573d6000803e3d6000fd5b505050506040513d601f19601f8201168201806040525081019061033391906106a7565b503373ffffffffffffffffffffffffffffffffffffffff166108fc829081150290604051600060405180830381858888f1935050505015801561037a573d6000803e3d6000fd5b507fa8a7473f10e62cf9687e243de1c3ac8b3cbc3dd04b96826beb3a65b59538581433600160009054906101000a900473ffffffffffffffffffffffffffffffffffffffff16846002546040516103d49493929190610840565b60405180910390a15050565b60003390508073ffffffffffffffffffffffffffffffffffffffff166108fc479081150290604051600060405180830381858888f1935050505015801561042b573d6000803e3d6000fd5b5050565b60006002543461043f9190610973565b905080600160009054906101000a900473ffffffffffffffffffffffffffffffffffffffff1673ffffffffffffffffffffffffffffffffffffffff166370a08231306040518263ffffffff1660e01b815260040161049d91906107ee565b60206040518083038186803b1580156104b557600080fd5b505afa1580156104c9573d6000803e3d6000fd5b505050506040513d601f19601f820116820180604052508101906104ed91906106f9565b101561052e576040517f08c379a0000000000000000000000000000000000000000000000000000000008152600401610525906108eb565b60405180910390fd5b600160009054906101000a900473ffffffffffffffffffffffffffffffffffffffff1673ffffffffffffffffffffffffffffffffffffffff1663a9059cbb33836040518363ffffffff1660e01b815260040161058b929190610885565b602060405180830381600087803b1580156105a557600080fd5b505af11580156105b9573d6000803e3d6000fd5b505050506040513d601f19601f820116820180604052508101906105dd91906106a7565b507f8daf503382665d950e449b86172be5222275c90f4ddf69c29fdaa8237a562a6d33600160009054906101000a900473ffffffffffffffffffffffffffffffffffffffff16836002546040516106379493929190610840565b60405180910390a150565b600160009054906101000a900473ffffffffffffffffffffffffffffffffffffffff1681565b60008151905061067781610b3c565b92915050565b60008135905061068c81610b53565b92915050565b6000815190506106a181610b53565b92915050565b6000602082840312156106b957600080fd5b60006106c784828501610668565b91505092915050565b6000602082840312156106e257600080fd5b60006106f08482850161067d565b91505092915050565b60006020828403121561070b57600080fd5b600061071984828501610692565b91505092915050565b61072b816109cd565b82525050565b61073a81610a15565b82525050565b600061074b82610926565b6107558185610931565b9350610765818560208601610a39565b61076e81610b2b565b840191505092915050565b6000610786602283610931565b91507f4e6f7420656e6f7567682062616c616e636520696e2074686973206163636f7560008301527f6e740000000000000000000000000000000000000000000000000000000000006020830152604082019050919050565b6107e881610a0b565b82525050565b60006020820190506108036000830184610722565b92915050565b600060608201905061081e6000830186610722565b61082b6020830185610722565b61083860408301846107df565b949350505050565b60006080820190506108556000830187610722565b6108626020830186610722565b61086f60408301856107df565b61087c60608301846107df565b95945050505050565b600060408201905061089a6000830185610722565b6108a760208301846107df565b9392505050565b60006020820190506108c36000830184610731565b92915050565b600060208201905081810360008301526108e38184610740565b905092915050565b6000602082019050818103600083015261090481610779565b9050919050565b600060208201905061092060008301846107df565b92915050565b600081519050919050565b600082825260208201905092915050565b600061094d82610a0b565b915061095883610a0b565b92508261096857610967610acd565b5b828204905092915050565b600061097e82610a0b565b915061098983610a0b565b9250817fffffffffffffffffffffffffffffffffffffffffffffffffffffffffffffffff04831182151516156109c2576109c1610a9e565b5b828202905092915050565b60006109d8826109eb565b9050919050565b60008115159050919050565b600073ffffffffffffffffffffffffffffffffffffffff82169050919050565b6000819050919050565b6000610a2082610a27565b9050919050565b6000610a32826109eb565b9050919050565b60005b83811015610a57578082015181840152602081019050610a3c565b83811115610a66576000848401525b50505050565b60006002820490506001821680610a8457607f821691505b60208210811415610a9857610a97610afc565b5b50919050565b7f4e487b7100000000000000000000000000000000000000000000000000000000600052601160045260246000fd5b7f4e487b7100000000000000000000000000000000000000000000000000000000600052601260045260246000fd5b7f4e487b7100000000000000000000000000000000000000000000000000000000600052602260045260246000fd5b6000601f19601f8301169050919050565b610b45816109df565b8114610b5057600080fd5b50565b610b5c81610a0b565b8114610b6757600080fd5b5056fea2646970667358221220b8281820b94b28a0c575dbc6032b566dd52dc1b7a3d15e29160f50a32223fdc864736f6c63430008000033",
  "immutableReferences": {},
  "source": "// SPDX-License-Identifier: GPL-3.0\r\npragma solidity ^0.8.0;\r\n\r\nimport \"./FAQToken.sol\";\r\n\r\ncontract EthSwap {\r\n    string public name = \"Ethswap Instant Exchange\";\r\n    FAQToken public token;\r\n    // Value of 1 token in ETH\r\n    uint256 public rate = 100;\r\n\r\n    event TokenPurchased(\r\n        address _account,\r\n        address _token,\r\n        uint256 _amount,\r\n        uint256 _rate\r\n    );\r\n\r\n    event TokenSold(\r\n        address _account,\r\n        address _token,\r\n        uint256 _amount,\r\n        uint256 _rate\r\n    );\r\n\r\n    constructor(FAQToken _token) {\r\n        token = _token;\r\n    }\r\n\r\n    function buyTokens() public payable {\r\n        // Calculate the number of tokens to buy\r\n        uint256 tokenAmount = msg.value * rate;\r\n        require(\r\n            token.balanceOf(address(this)) >= tokenAmount,\r\n            \"Not enough balance in this account\"\r\n        );\r\n        token.transfer(msg.sender, tokenAmount);\r\n        // Emit event token purchased\r\n        emit TokenPurchased(msg.sender, address(token), tokenAmount, rate);\r\n    }\r\n\r\n    function sellTokens(uint256 _amount) public payable {\r\n        // Calculate the number of ether to sell\r\n        require(token.balanceOf(msg.sender) >= _amount);\r\n        uint256 _etherAmount = _amount / rate;\r\n        require(address(this).balance >= _etherAmount);\r\n        token.transferFrom(msg.sender, address(this), _amount);\r\n        payable(msg.sender).transfer(_etherAmount);\r\n        emit TokenSold(msg.sender, address(token), _amount, rate);\r\n    }\r\n\r\n    // Withdraw all money to sender\r\n    function withdrawMoney() public {\r\n        address payable to = payable(msg.sender);\r\n        // Transfer all money from this account to sender account\r\n        to.transfer(address(this).balance);\r\n    }\r\n}\r\n",
  "sourcePath": "C:\\Users\\Facu\\Desktop\\Projects\\Capacitacin\\Smart contracts\\trainee-blockchain-frodriguez\\ethSwapOpenZepellin\\contracts\\EthSwap.sol",
  "compiler": {
    "name": "solc",
    "version": "0.8.0+commit.c7dfd78e.Emscripten.clang"
  },
  "schemaVersion": "3.4.3",
  "updatedAt": "2021-09-15T19:37:45.080Z",
  "networkType": "ethereum",
  "devdoc": {
    "kind": "dev",
    "methods": {},
    "version": 1
  },
  "userdoc": {
    "kind": "user",
    "methods": {},
    "version": 1
  }
}